{
  "contractName": "MarketPlace",
  "abi": [
    {
      "inputs": [],
      "stateMutability": "nonpayable",
      "type": "constructor"
    },
    {
      "anonymous": false,
      "inputs": [
        {
          "components": [
            {
              "internalType": "uint256",
              "name": "id",
              "type": "uint256"
            },
            {
              "internalType": "string",
              "name": "name",
              "type": "string"
            },
            {
              "internalType": "enum MarketPlace.State",
              "name": "etat",
              "type": "uint8"
            }
          ],
          "indexed": false,
          "internalType": "struct MarketPlace.Produit[]",
          "name": "produit",
          "type": "tuple[]"
        }
      ],
      "name": "ListProduits",
      "type": "event"
    },
    {
      "anonymous": false,
      "inputs": [
        {
          "indexed": false,
          "internalType": "address",
          "name": "acheteur",
          "type": "address"
        },
        {
          "indexed": false,
          "internalType": "address",
          "name": "vendeur",
          "type": "address"
        },
        {
          "indexed": false,
          "internalType": "uint256",
          "name": "prix",
          "type": "uint256"
        }
      ],
      "name": "ProduitsAchetes",
      "type": "event"
    },
    {
      "inputs": [],
      "name": "acheteur",
      "outputs": [
        {
          "internalType": "address",
          "name": "",
          "type": "address"
        }
      ],
      "stateMutability": "view",
      "type": "function"
    },
    {
      "inputs": [
        {
          "internalType": "address",
          "name": "",
          "type": "address"
        }
      ],
      "name": "balances",
      "outputs": [
        {
          "internalType": "uint256",
          "name": "",
          "type": "uint256"
        }
      ],
      "stateMutability": "view",
      "type": "function"
    },
    {
      "inputs": [],
      "name": "vendeur",
      "outputs": [
        {
          "internalType": "address",
          "name": "",
          "type": "address"
        }
      ],
      "stateMutability": "view",
      "type": "function"
    },
    {
      "inputs": [
        {
          "internalType": "address",
          "name": "_vendeur",
          "type": "address"
        },
        {
          "internalType": "address",
          "name": "_acheteur",
          "type": "address"
        },
        {
          "internalType": "uint256",
          "name": "_prix",
          "type": "uint256"
        },
        {
          "internalType": "uint256",
          "name": "id",
          "type": "uint256"
        }
      ],
      "name": "achat",
      "outputs": [],
      "stateMutability": "payable",
      "type": "function"
    },
    {
      "inputs": [
        {
          "internalType": "address",
          "name": "_acheteur",
          "type": "address"
        }
      ],
      "name": "getSolde",
      "outputs": [
        {
          "internalType": "uint256",
          "name": "",
          "type": "uint256"
        }
      ],
      "stateMutability": "view",
      "type": "function"
    },
    {
      "inputs": [
        {
          "internalType": "address",
          "name": "_acheteur",
          "type": "address"
        },
        {
          "internalType": "uint256",
          "name": "_montant",
          "type": "uint256"
        }
      ],
      "name": "setSolde",
      "outputs": [],
      "stateMutability": "nonpayable",
      "type": "function"
    },
    {
      "inputs": [],
      "name": "getListeProduits",
      "outputs": [],
      "stateMutability": "nonpayable",
      "type": "function"
    }
  ],
  "bytecode": "0x60806040523480156200001157600080fd5b5033600260006101000a81548173ffffffffffffffffffffffffffffffffffffffff021916908373ffffffffffffffffffffffffffffffffffffffff16021790555060006040518060600160405280600081526020016040518060400160405280600881526020017f50726f6475697431000000000000000000000000000000000000000000000000815250815260200160006001811115620000b957620000b86200034e565b5b8152509080600181540180825580915050600190039060005260206000209060030201600090919091909150600082015181600001556020820151816001019081620001069190620005f7565b5060408201518160020160006101000a81548160ff021916908360018111156200013557620001346200034e565b5b0217905550505060006040518060600160405280600181526020016040518060400160405280600881526020017f50726f6475697432000000000000000000000000000000000000000000000000815250815260200160006001811115620001a257620001a16200034e565b5b8152509080600181540180825580915050600190039060005260206000209060030201600090919091909150600082015181600001556020820151816001019081620001ef9190620005f7565b5060408201518160020160006101000a81548160ff021916908360018111156200021e576200021d6200034e565b5b0217905550505060006040518060600160405280600281526020016040518060400160405280600881526020017f50726f64756974330000000000000000000000000000000000000000000000008152508152602001600060018111156200028b576200028a6200034e565b5b8152509080600181540180825580915050600190039060005260206000209060030201600090919091909150600082015181600001556020820151816001019081620002d89190620005f7565b5060408201518160020160006101000a81548160ff021916908360018111156200030757620003066200034e565b5b021790555050507f1b0e341d2f02b17f2a3932132cc656cfdefc028ba3e7b6457d63ca5cc6a2791f600060405162000340919062000986565b60405180910390a1620009aa565b7f4e487b7100000000000000000000000000000000000000000000000000000000600052602160045260246000fd5b600081519050919050565b7f4e487b7100000000000000000000000000000000000000000000000000000000600052604160045260246000fd5b7f4e487b7100000000000000000000000000000000000000000000000000000000600052602260045260246000fd5b60006002820490506001821680620003ff57607f821691505b602082108103620004155762000414620003b7565b5b50919050565b60008190508160005260206000209050919050565b60006020601f8301049050919050565b600082821b905092915050565b6000600883026200047f7fffffffffffffffffffffffffffffffffffffffffffffffffffffffffffffffff8262000440565b6200048b868362000440565b95508019841693508086168417925050509392505050565b6000819050919050565b6000819050919050565b6000620004d8620004d2620004cc84620004a3565b620004ad565b620004a3565b9050919050565b6000819050919050565b620004f483620004b7565b6200050c6200050382620004df565b8484546200044d565b825550505050565b600090565b6200052362000514565b62000530818484620004e9565b505050565b5b8181101562000558576200054c60008262000519565b60018101905062000536565b5050565b601f821115620005a75762000571816200041b565b6200057c8462000430565b810160208510156200058c578190505b620005a46200059b8562000430565b83018262000535565b50505b505050565b600082821c905092915050565b6000620005cc60001984600802620005ac565b1980831691505092915050565b6000620005e78383620005b9565b9150826002028217905092915050565b62000602826200037d565b67ffffffffffffffff8111156200061e576200061d62000388565b5b6200062a8254620003e6565b620006378282856200055c565b600060209050601f8311600181146200066f57600084156200065a578287015190505b620006668582620005d9565b865550620006d6565b601f1984166200067f866200041b565b60005b82811015620006a95784890151825560018201915060208501945060208101905062000682565b86831015620006c95784890151620006c5601f891682620005b9565b8355505b6001600288020188555050505b505050505050565b600081549050919050565b600082825260208201905092915050565b60008190508160005260206000209050919050565b60008160001c9050919050565b6000819050919050565b60006200073d62000737836200070f565b6200071c565b9050919050565b6200074f81620004a3565b82525050565b600082825260208201905092915050565b600081546200077581620003e6565b62000781818662000755565b945060018216600081146200079f5760018114620007b657620007ed565b60ff198316865281151560200286019350620007ed565b620007c1856200041b565b60005b83811015620007e557815481890152600182019150602081019050620007c4565b808801955050505b50505092915050565b600060ff82169050919050565b60006200081a62000814836200070f565b620007f6565b9050919050565b600281106200083557620008346200034e565b5b50565b6000819050620008488262000821565b919050565b60006200085a8262000838565b9050919050565b6200086c816200084d565b82525050565b60006060830160008084015490506200088b8162000726565b6200089a600087018262000744565b50600184018583036020870152620008b3838262000766565b92505060028401549050620008c88162000803565b620008d7604087018262000861565b50819250505092915050565b6000620008f1838362000872565b905092915050565b6000600382019050919050565b60006200091382620006de565b6200091f8185620006e9565b9350836020820285016200093385620006fa565b8060005b858110156200097457848403895281620009528582620008e3565b94506200095f83620008f9565b925060208a0199505060018101905062000937565b50829750879550505050505092915050565b60006020820190508181036000830152620009a2818462000906565b905092915050565b610d7a80620009ba6000396000f3fe6080604052600436106100705760003560e01c80639716845e1161004e5780639716845e1461011857806399ffb35f146101345780639a2caedc1461014b578063c28fda301461017657610070565b80630fd81a7f1461007557806327e235e31461009e5780633bbfddc7146100db575b600080fd5b34801561008157600080fd5b5061009c6004803603810190610097919061064b565b6101a1565b005b3480156100aa57600080fd5b506100c560048036038101906100c0919061068b565b6101e9565b6040516100d291906106c7565b60405180910390f35b3480156100e757600080fd5b5061010260048036038101906100fd919061068b565b610201565b60405161010f91906106c7565b60405180910390f35b610132600480360381019061012d91906106e2565b61024a565b005b34801561014057600080fd5b5061014961052c565b005b34801561015757600080fd5b50610160610566565b60405161016d9190610758565b60405180910390f35b34801561018257600080fd5b5061018b61058c565b6040516101989190610758565b60405180910390f35b80600360008473ffffffffffffffffffffffffffffffffffffffff1673ffffffffffffffffffffffffffffffffffffffff168152602001908152602001600020819055505050565b60036020528060005260406000206000915090505481565b6000600360008373ffffffffffffffffffffffffffffffffffffffff1673ffffffffffffffffffffffffffffffffffffffff168152602001908152602001600020549050919050565b81600360008573ffffffffffffffffffffffffffffffffffffffff1673ffffffffffffffffffffffffffffffffffffffff1681526020019081526020016000205410156102cc576040517f08c379a00000000000000000000000000000000000000000000000000000000081526004016102c3906107f6565b60405180910390fd5b600080549050811115610314576040517f08c379a000000000000000000000000000000000000000000000000000000000815260040161030b90610862565b60405180910390fd5b6000600181111561032857610327610882565b5b6000828154811061033c5761033b6108b1565b5b906000526020600020906003020160020160009054906101000a900460ff16600181111561036d5761036c610882565b5b146103ad576040517f08c379a00000000000000000000000000000000000000000000000000000000081526004016103a49061092c565b60405180910390fd5b81600360008673ffffffffffffffffffffffffffffffffffffffff1673ffffffffffffffffffffffffffffffffffffffff16815260200190815260200160002060008282546103fc919061097b565b9250508190555081600360008573ffffffffffffffffffffffffffffffffffffffff1673ffffffffffffffffffffffffffffffffffffffff168152602001908152602001600020600082825461045291906109d1565b9250508190555060016000828154811061046f5761046e6108b1565b5b906000526020600020906003020160020160006101000a81548160ff021916908360018111156104a2576104a1610882565b5b02179055507fb8ec039cc5efd393f9fbe7edb3ee26116d3e99a4e75be3637fe76c20a277cc1e600160009054906101000a900473ffffffffffffffffffffffffffffffffffffffff16600260009054906101000a900473ffffffffffffffffffffffffffffffffffffffff168460405161051e93929190610a05565b60405180910390a150505050565b7f1b0e341d2f02b17f2a3932132cc656cfdefc028ba3e7b6457d63ca5cc6a2791f600060405161055c9190610d22565b60405180910390a1565b600260009054906101000a900473ffffffffffffffffffffffffffffffffffffffff1681565b600160009054906101000a900473ffffffffffffffffffffffffffffffffffffffff1681565b600080fd5b600073ffffffffffffffffffffffffffffffffffffffff82169050919050565b60006105e2826105b7565b9050919050565b6105f2816105d7565b81146105fd57600080fd5b50565b60008135905061060f816105e9565b92915050565b6000819050919050565b61062881610615565b811461063357600080fd5b50565b6000813590506106458161061f565b92915050565b60008060408385031215610662576106616105b2565b5b600061067085828601610600565b925050602061068185828601610636565b9150509250929050565b6000602082840312156106a1576106a06105b2565b5b60006106af84828501610600565b91505092915050565b6106c181610615565b82525050565b60006020820190506106dc60008301846106b8565b92915050565b600080600080608085870312156106fc576106fb6105b2565b5b600061070a87828801610600565b945050602061071b87828801610600565b935050604061072c87828801610636565b925050606061073d87828801610636565b91505092959194509250565b610752816105d7565b82525050565b600060208201905061076d6000830184610749565b92915050565b600082825260208201905092915050565b7f4c276163686574657572206e27612070617320617373657a206427617267656e60008201527f7400000000000000000000000000000000000000000000000000000000000000602082015250565b60006107e0602183610773565b91506107eb82610784565b604082019050919050565b6000602082019050818103600083015261080f816107d3565b9050919050565b7f4c652070726f64756974206e2765786973746520706173000000000000000000600082015250565b600061084c601783610773565b915061085782610816565b602082019050919050565b6000602082019050818103600083015261087b8161083f565b9050919050565b7f4e487b7100000000000000000000000000000000000000000000000000000000600052602160045260246000fd5b7f4e487b7100000000000000000000000000000000000000000000000000000000600052603260045260246000fd5b7f4c652070726f64756974206e276573742070617320646973706f6e69626c6500600082015250565b6000610916601f83610773565b9150610921826108e0565b602082019050919050565b6000602082019050818103600083015261094581610909565b9050919050565b7f4e487b7100000000000000000000000000000000000000000000000000000000600052601160045260246000fd5b600061098682610615565b915061099183610615565b9250827fffffffffffffffffffffffffffffffffffffffffffffffffffffffffffffffff038211156109c6576109c561094c565b5b828201905092915050565b60006109dc82610615565b91506109e783610615565b9250828210156109fa576109f961094c565b5b828203905092915050565b6000606082019050610a1a6000830186610749565b610a276020830185610749565b610a3460408301846106b8565b949350505050565b600081549050919050565b600082825260208201905092915050565b60008190508160005260206000209050919050565b60008160001c9050919050565b6000819050919050565b6000610a97610a9283610a6d565b610a7a565b9050919050565b610aa781610615565b82525050565b7f4e487b7100000000000000000000000000000000000000000000000000000000600052602260045260246000fd5b60006002820490506001821680610af457607f821691505b602082108103610b0757610b06610aad565b5b50919050565b600082825260208201905092915050565b60008190508160005260206000209050919050565b60008154610b4081610adc565b610b4a8186610b0d565b94506001821660008114610b655760018114610b7b57610bae565b60ff198316865281151560200286019350610bae565b610b8485610b1e565b60005b83811015610ba657815481890152600182019150602081019050610b87565b808801955050505b50505092915050565b600060ff82169050919050565b6000610bd7610bd283610a6d565b610bb7565b9050919050565b60028110610bef57610bee610882565b5b50565b6000819050610c0082610bde565b919050565b6000610c1082610bf2565b9050919050565b610c2081610c05565b82525050565b6000606083016000808401549050610c3d81610a84565b610c4a6000870182610a9e565b50600184018583036020870152610c618382610b33565b92505060028401549050610c7481610bc4565b610c816040870182610c17565b50819250505092915050565b6000610c998383610c26565b905092915050565b6000600382019050919050565b6000610cb982610a3c565b610cc38185610a47565b935083602082028501610cd585610a58565b8060005b85811015610d1057848403895281610cf18582610c8d565b9450610cfc83610ca1565b925060208a01995050600181019050610cd9565b50829750879550505050505092915050565b60006020820190508181036000830152610d3c8184610cae565b90509291505056fea26469706673582212202c23025ea1cc6061e1fe862b17a7adf4f6f255fe9ee6dbebc2edda0e9e6e932564736f6c634300080f0033",
  "immutableReferences": {},
  "source": "// SPDX-License-Identifier: MIT\npragma solidity >=0.4.22 <0.9.0;\n\ncontract MarketPlace {\n  struct Produit {\n    uint id;\n    string name;\n    State etat;\n  }\n\n  Produit[] produits;\n  \n  address public acheteur;\n  address public vendeur;\n  mapping (address => uint) public balances;\n\n  event ListProduits(Produit[] produit);\n  event ProduitsAchetes(address acheteur, address vendeur, uint prix);\n\n  enum State { ProduitDisponible, ArticleCommande }\n\n  constructor() {\n      vendeur = msg.sender;\n      produits.push(Produit(0, \"Produit1\", State.ProduitDisponible));\n      produits.push(Produit(1, \"Produit2\", State.ProduitDisponible));\n      produits.push(Produit(2, \"Produit3\", State.ProduitDisponible));\n      emit ListProduits(produits);\n  }\n\n  function achat(address _vendeur, address _acheteur, uint _prix, uint id) public payable {\n    require(balances[_acheteur] >= _prix, \"L'acheteur n'a pas assez d'argent\");\n    require(id <= produits.length, \"Le produit n'existe pas\");\n    require(produits[id].etat == State.ProduitDisponible, \"Le produit n'est pas disponible\");\n    balances[_vendeur] += _prix;\n    balances[_acheteur] -= _prix;\n    produits[id].etat = State.ArticleCommande;\n    emit ProduitsAchetes(acheteur, vendeur, _prix);\n  }\n\n  function getSolde(address _acheteur) public view returns(uint) {\n    return(balances[_acheteur]);\n  }\n\n  function setSolde(address _acheteur, uint _montant) public {\n      balances[_acheteur] = _montant;\n  }\n\n  function getListeProduits() public {\n      emit ListProduits(produits);\n  }\n}\n",
  "sourcePath": "F:\\Univ\\Blockchain\\Contract1\\contracts\\MarketPlace.sol",
  "compiler": {
    "name": "solc",
    "version": "0.8.15+commit.e14f2714.Emscripten.clang"
  },
  "schemaVersion": "3.4.7",
  "updatedAt": "2022-09-05T14:33:36.671Z",
  "devdoc": {
    "kind": "dev",
    "methods": {},
    "version": 1
  },
  "userdoc": {
    "kind": "user",
    "methods": {},
    "version": 1
  }
}